:100000000C9462000C948A000C948A000C948A0070
:100010000C948A000C948A000C948A000C948A0038
:100020000C948A000C948A000C948A000C9494031B
:100030000C948A000C948A000C948A000C948A0018
:100040000C94F2020C948A000C9462030C943C030E
:100050000C948A000C948A000C948A000C948A00F8
:100060000C948A000C948A000000000023002600F3
:10007000290000000000240027002A0000000000E2
:10008000250028002B0004040404040404040202D4
:100090000202020203030303030301020408102007
:1000A0004080010204081020010204081020000012
:1000B0000008000201000003040700000000000027
:1000C0000000950411241FBECFEFD8E0DEBFCDBFE6
:1000D00011E0A0E0B1E0E6EDF6E102C005900D927E
:1000E000AA34B107D9F722E0AAE4B1E001C01D9219
:1000F000A232B207E1F710E0C2E6D0E004C02197D7
:10010000FE010E943B09C136D107C9F70E940C05C8
:100110000C94690B0C94000090E0FC01E255FF4F39
:100120002491FC01E656FF4F3491FC01EA57FF4F42
:10013000E491EE23C9F0222339F0233001F1A8F431
:10014000213019F1223029F1F0E0EE0FFF1FE458C1
:10015000FF4FA591B4918FB7F894EC91611126C02F
:1001600030953E233C938FBF08952730A9F0283067
:10017000C9F0243049F7809180008F7D03C08091C1
:1001800080008F7780938000DFCF84B58F7784BD28
:10019000DBCF84B58F7DFBCF8091B0008F778093CC
:1001A000B000D2CF8091B0008F7DF9CF3E2BDACF57
:1001B000CF93DF9390E0FC01E656FF4F24918A57DE
:1001C0009F4FFC0184918823D1F090E0880F991F04
:1001D000FC01EE58FF4FA591B491FC01E458FF4F8C
:1001E000C591D49161110EC09FB7F8948C91E22F04
:1001F000E0958E238C932881E223E8839FBFDF91D3
:10020000CF9108958FB7F894EC91E22BEC938FBFC8
:10021000F6CF3FB7F8948091520190915301A0918D
:100220005401B091550126B5A89B05C02F3F19F088
:100230000196A11DB11D3FBFBA2FA92F982F882766
:10024000BC01CD01620F711D811D911D42E0660F41
:10025000771F881F991F4A95D1F70895AF92BF92D3
:10026000CF92DF92EF92FF920F931F93CF93DF9382
:100270006C017B018B01040F151FEB015E01AE18B1
:10028000BF08C017D10759F06991D601ED91FC91D3
:100290000190F081E02DC6010995892B79F7C50100
:1002A000DF91CF911F910F91FF90EF90DF90CF9052
:1002B000BF90AF900895FC01538D448D252F30E001
:1002C000842F90E0821B930B541710F0CF96089563
:1002D00001970895FC01918D828D981761F0A28D90
:1002E000AE0FBF2FB11D5D968C91928D9F5F9F7356
:1002F000928F90E008958FEF9FEF0895FC01918D0C
:10030000828D981731F0828DE80FF11D858D90E078
:1003100008958FEF9FEF0895FC01918D228D892F15
:1003200090E0805C9F4F821B91098F7399270895FD
:1003300086E591E00E948C0121E0892B09F420E000
:10034000822F089580E090E0892B29F00E94980187
:1003500081110C9400000895FC01A48DA80FB92F01
:10036000B11DA35ABF4F2C91848D90E001968F73DD
:100370009927848FA689B7892C93A089B1898C91FC
:10038000837080648C93938D848D981306C002884B
:10039000F389E02D80818F7D80830895EF92FF9215
:1003A0000F931F93CF93DF93EC0181E0888F9B8D98
:1003B0008C8D98131AC0E889F989808185FF15C052
:1003C0009FB7F894EE89FF896083E889F989808175
:1003D0008370806480839FBF81E090E0DF91CF9144
:1003E0001F910F91FF90EF900895F62E0B8D10E066
:1003F0000F5F1F4F0F731127E02E8C8D8E110CC0D5
:100400000FB607FCFACFE889F989808185FFF5CF1F
:10041000CE010E94AC01F1CFEB8DEC0FFD2FF11D51
:10042000E35AFF4FF0829FB7F8940B8FEA89FB895C
:1004300080818062CFCFCF93DF93EC01888D8823BA
:10044000B9F0AA89BB89E889F9898C9185FD03C037
:10045000808186FD0DC00FB607FCF7CF8C9185FF1C
:10046000F2CF808185FFEDCFCE010E94AC01E9CFB4
:10047000DF91CF9108958F929F92AF92BF92FF929A
:100480000F931F93CF93DF93FC01F0808BE08F15C8
:1004900008F44AC0828108E512E0081B110987FDB3
:1004A0001395000F111F000F111F8181C8E8D0E0C4
:1004B000C81BD10987FDD395CC0FDD1FCC0FDD1FE5
:1004C0004E010D2E000CAA08BB089801012E000C4D
:1004D000440B550B281939094A095B09DB010E94B5
:1004E000BF0824EB30E040E050E00E949508820E07
:1004F000931EA41EB51E8C169D062CF0E8018016D6
:1005000091060CF4E4012297CC0FDD1F2FB7F8946D
:100510008F2D90E0FC01EE0FFF1FE80FF91FED504B
:10052000FE4FD283C1832FBFDF91CF911F910F91D7
:10053000FF90BF90AF909F908F900895892B79F492
:100540001092800082E080938100109285001092CA
:100550008400B19A80916F00826080936F0008954B
:1005600042E050E068E171E086E591E00C942E01F4
:10057000CF93DF93EC0188819981009711F00E945D
:10058000130A198218821D821C821B821A82DF9133
:10059000CF9108950F931F93CF93DF93EC01888140
:1005A0009981009759F02A813B812617370730F04F
:1005B00081E0DF91CF911F910F9108958B016F5FC3
:1005C0007F4F0E949C0A009759F0998388831B8370
:1005D0000A832C813D81232B59F7FC011082E8CF3F
:1005E00080E0E7CF1F920F920FB60F9211242F9346
:1005F0003F938F939F93AF93BF9380914E019091C0
:100600004F01A0915001B091510130914D0123E073
:10061000230F2D3758F50196A11DB11D20934D01D3
:1006200080934E0190934F01A0935001B0935101DC
:100630008091520190915301A0915401B0915501C4
:100640000196A11DB11D8093520190935301A09377
:100650005401B0935501BF91AF919F918F913F91FC
:100660002F910F900FBE0F901F90189526E8230F23
:100670000296A11DB11DD2CF1F920F920FB60F92FD
:1006800011242F933F934F935F936F937F938F9397
:100690009F93AF93BF93EF93FF9386E591E00E9402
:1006A000AC01FF91EF91BF91AF919F918F917F919D
:1006B0006F915F914F913F912F910F900FBE0F90CF
:1006C0001F9018951F920F920FB60F9211242F931F
:1006D0008F939F93EF93FF93E0916601F0916701F1
:1006E0008081E0916C01F0916D0182FD1BC09081D1
:1006F00080916F018F5F8F7320917001821741F09D
:10070000E0916F01F0E0EA5AFE4F958F80936F0100
:10071000FF91EF919F918F912F910F900FBE0F90AE
:100720001F9018958081F4CF1F920F920FB60F92F1
:1007300011242F933F934F935F936F937F938F93E6
:100740009F93AF93BF93CF93DF93EF93FF938091EA
:100750004A01C0911702D0E087FF24C010928500A3
:100760001092840080914A018F5F80934A018091AA
:100770004A01082E000C990B8C179D0724F48091D8
:100780004A018C30C4F180918400909185000496D8
:1007900080349C4908F47AC080918400909185004F
:1007A000049676C080914A01082E000C990B8C1794
:1007B0009D07C4F6E0914A018E2FEE0F990BFC01C4
:1007C000EE0FFF1FE80FF91FED50FE4F808186FFEF
:1007D000C9CFE0914A018E2FEE0F990BFC01EE0F6D
:1007E000FF1FE80FF91FED50FE4F808160E08F730F
:1007F0000E948C00B7CF2091840030918500E09159
:100800004A018E2FEE0F990BFC01EE0FFF1FE80F30
:10081000F91FED50FE4F81819281820F931F9093BB
:10082000890080938800E0914A018E2FEE0F990B8A
:10083000FC01EE0FFF1FE80FF91FED50FE4F808106
:1008400086FF11C0E0914A018E2FEE0F990BFC013B
:10085000EE0FFF1FE80FF91FED50FE4F808161E0A2
:100860008F730E948C00FF91EF91DF91CF91BF9128
:10087000AF919F918F917F916F915F914F913F9138
:100880002F910F900FBE0F901F90189580E49CE958
:1008900090938900809388008FEF80934A01E3CF83
:1008A000CF92DF92EF92FF920F931F93E82FF92FD1
:1008B00005C0015011092109310961F19081962388
:1008C0009417B9F305C0015011092109310911F13B
:1008D000908196239413F7CFC12CD12CE12CF12CCD
:1008E0000AC08FEFC81AD80AE80AF80A0C151D05C5
:1008F0002E053F0579F080818623841791F36C2DB6
:100900007D2D8E2D9F2D1F910F91FF90EF90DF90E9
:10091000CF90089560E070E080E090E01F910F912B
:10092000FF90EF90DF90CF900895109259011092B0
:10093000580188EE93E0A0E0B0E080935A019093D4
:100940005B01A0935C01B0935D018AE091E090931C
:1009500057018093560185EC90E09093630180935A
:10096000620184EC90E0909365018093640180ECD7
:1009700090E0909367018093660181EC90E0909302
:1009800069018093680182EC90E090936B01809301
:100990006A0186EC90E090936D0180936C01109257
:1009A0006F0110927001109271011092720180918A
:1009B00017028C3048F591E0980F909317028093BE
:1009C0001B0290E0FC01EE0FFF1FE80FF91FED5036
:1009D000FE4F88EB9BE092838183809117028C30DD
:1009E000B8F491E0980F909317028093180290E06A
:1009F000FC01EE0FFF1FE80FF91FED50FE4F88EBD3
:100A00009BE09283818308958FEF80931B02E5CF53
:100A10008FEF809318020895CF93DF93CDB7DEB7A1
:100A200068970FB6F894DEBF0FBECDBF789484B53B
:100A3000826084BD84B5816084BD85B5826085BDDA
:100A400085B5816085BD80916E00816080936E0068
:100A5000109281008091810082608093810080915A
:100A6000810081608093810080918000816080930B
:100A700080008091B10084608093B1008091B000CB
:100A800081608093B00080917A00846080937A00C6
:100A900080917A00826080937A0080917A008160F0
:100AA00080937A0080917A00806880937A00109217
:100AB000C100E0916601F091670182E08083E091DE
:100AC0006201F09163011082E0916401F09165018F
:100AD0008FEC808310926E01E0916A01F0916B01BE
:100AE00086E08083E0916801F091690180818061F6
:100AF0008083E0916801F091690180818860808342
:100B0000E0916801F0916901808180688083E091C3
:100B10006801F091690180818F7D80834EE150E012
:100B20006BE171E086E591E00E942E010E94B00227
:100B300061E082E00E94D80060E083E00E94D8007B
:100B400080911B028C3008F043C061E085E00E9478
:100B5000D80080911B02282F30E0F901EE0FFF1F13
:100B6000E20FF31FED50FE4F9081907C95609083D3
:100B700010921C0210921D022CE0622F0E942F097D
:100B800090E0829FB001112430E020E0AB01420FE1
:100B9000531FFA01EE0FFF1FE40FF51FED50FE4F3C
:100BA000408146FD07C02F5F3F4F2C30310571F764
:100BB0000E949E02E0911B028E2F90E0FC01EE0F3E
:100BC000FF1FE80FF91FED50FE4F80818064808386
:100BD000809118028C3008F043C061E086E00E94EA
:100BE000D80080911802282F30E0F901EE0FFF1F86
:100BF000E20FF31FED50FE4F9081907C9660908342
:100C00001092190210921A022CE0622F0E942F09F2
:100C100090E0829FB001112430E020E0AB01420F50
:100C2000531FFA01EE0FFF1FE40FF51FED50FE4FAB
:100C3000408146FD07C02F5F3F4F2C30310571F7D3
:100C40000E949E02E09118028E2F90E0FC01EE0FB0
:100C5000FF1FE80FF91FED50FE4F808180648083F5
:100C600023E2C22ED12C39E8232E30E0332ECE01E0
:100C700001967C0160E082E00E948C0083E090E0BD
:100C80000197F1F761E082E00E948C00C6010197B4
:100C9000F1F760E082E00E948C00EDE9F0E0649101
:100CA000F1018491E82FF0E0EE0FFF1FE859FF4FAC
:100CB0008591949100E412E42FE030E0462F0E94E9
:100CC0005004611571058105910529F06F5F7F4F13
:100CD0008F4F9F4F9F700E949C0726E933E44BE0A3
:100CE0005DE30E94D70720E030E040E05FE30E9430
:100CF000D7070E944109CB0170934C0160934B01CF
:100D00001C8A1B8A1E8A1D8A188E1F8A4AE0B70118
:100D10000E946507F70101900020E9F731978F01E4
:100D20000E191F09B801CE0143960E94CA02811113
:100D30009DC0CE0143960E94B8021A8219821C827D
:100D40001B821E821D826AE070E0C7010E94CA02F7
:100D5000811194C0C7010E94B8026B887C8861141D
:100D6000710409F496C00F89188D01151105B1F0B1
:100D70008D819E81080F191FB801C7010E94CA0208
:100D8000882309F486C029813A818D819E81B3012F
:100D9000820F931F0E94620B1E830D830D811E81A3
:100DA0000D5F1F4FB801C7010E94CA02811175C0B3
:100DB000C7010E94B8024D815E8169817A8186E512
:100DC00091E00E942E010E94B00289819A810097D1
:100DD00011F00E94130A8B899C89009711F00E94E0
:100DE000130A80914B0190914C0164EB70E04497A1
:100DF0000CF060C08BE192E00E943B0264EB70E07B
:100E000088E192E00E943B020E9409012B013C0113
:100E100088EE882E83E0982EA12CB12C0E94090127
:100E20006419750986099709683E73408105910523
:100E3000A8F3F1E08F1A9108A108B10828EE420E3C
:100E400023E0521E611C711C81149104A104B104A1
:100E500029F780E090E0892B09F40CCF0E949801DB
:100E6000882309F407CF0E94000004CF188F0F8B4E
:100E7000B7018B899C890E94620B5FCF8AE090E06A
:100E80009E838D836AE371E089819A810E94620B5F
:100E900064CFC7010E94B80281CF29813A818D8138
:100EA0009E8165E471E0820F931F0E94620B1E8396
:100EB0000D8381CF8BE192E00E943B0262E370E000
:100EC00088E192E00E943B02C4CFBB274A3031F454
:100ED000992322F4BDE2909581959F4F0C94710760
:100EE000BB27FB015527AA27880F991FAA1FA41704
:100EF00010F0A41B83955051B9F7A05DAA3308F0F8
:100F0000A95DA193009779F7B111B1931192CB012B
:100F10000C948A07DC01FC01672F71917723E1F7BC
:100F2000329704C07C916D9370836291AE17BF07B6
:100F3000C8F30895E89409C097FB3EF49095809516
:100F4000709561957F4F8F4F9F4F9923A9F0F92F8F
:100F500096E9BB279395F695879577956795B7950D
:100F6000F111F8CFFAF4BB0F11F460FF1BC06F5FF3
:100F70007F4F8F4F9F4F16C0882311F096E911C005
:100F8000772321F09EE8872F762F05C0662371F026
:100F900096E8862F70E060E02AF09A95660F771F3A
:100FA000881FDAF7880F9695879597F908950E941C
:100FB000EA070C945B080E944D0838F00E94540820
:100FC00020F0952311F00C9444080C944A08112445
:100FD0000C948F080E946C0870F3959FC1F3950FD5
:100FE00050E0551F629FF001729FBB27F00DB11DAD
:100FF000639FAA27F00DB11DAA1F649F6627B00D3D
:10100000A11D661F829F2227B00DA11D621F739F25
:10101000B00DA11D621F839FA00D611D221F749F33
:101020003327A00D611D231F849F600D211D822F7A
:10103000762F6A2F11249F5750409AF0F1F08823A1
:101040004AF0EE0FFF1FBB1F661F771F881F9150CE
:101050005040A9F79E3F510580F00C9444080C9431
:101060008F085F3FE4F3983ED4F3869577956795B4
:10107000B795F795E7959F5FC1F7FE2B880F911DF8
:101080009695879597F9089597F99F6780E870E09E
:1010900060E008959FEF80EC089500240A941616EE
:1010A000170618060906089500240A941216130656
:1010B000140605060895092E0394000C11F48823E4
:1010C00052F0BB0F40F4BF2B11F460FF04C06F5F00
:1010D0007F4F8F4F9F4F089557FD9058440F551FD6
:1010E00059F05F3F71F04795880F97FB991F61F0AA
:1010F0009F3F79F087950895121613061406551F21
:10110000F2CF4695F1DF08C0161617061806991F8C
:10111000F1CF86957105610508940895E894BB2781
:1011200066277727CB0197F90895052E97FB1EF4C4
:1011300000940E94AC0857FD07D00E94FE0807FCEF
:1011400003D04EF40C94AC08509540953095219501
:101150003F4F4F4F5F4F08959095809570956195E3
:101160007F4F8F4F9F4F08950E942009A59F900D9C
:10117000B49F900DA49F800D911D11240895B7FF79
:101180000C94B4080E94B408821B930B08952F920C
:101190003F924F925F926F927F928F929F92AF9207
:1011A000BF92CF92DF92EF92FF920F931F93CF9354
:1011B000DF93CDB7DEB7CA1BDB0B0FB6F894DEBFEB
:1011C0000FBECDBF09942A88398848885F846E8411
:1011D0007D848C849B84AA84B984C884DF80EE805B
:1011E000FD800C811B81AA81B981CE0FD11D0FB664
:1011F000F894DEBF0FBECDBFED010895A1E21A2E17
:10120000AA1BBB1BFD010DC0AA1FBB1FEE1FFF1FAA
:10121000A217B307E407F50720F0A21BB30BE40BFA
:10122000F50B661F771F881F991F1A9469F7609541
:101230007095809590959B01AC01BD01CF010895FB
:10124000A29FB001B39FC001A39F700D811D112407
:10125000911DB29F700D811D1124911D0895991B40
:1012600079E004C0991F961708F0961B881F7A959D
:10127000C9F780950895EE0FFF1F0590F491E02DBA
:1012800009940E9448096894B1110C948F0808953C
:101290000E94740888F09F5798F0B92F9927B7518A
:1012A000B0F0E1F0660F771F881F991F1AF0BA950A
:1012B000C9F714C0B13091F00E948E08B1E00895D2
:1012C0000C948E08672F782F8827B85F39F0B93FC4
:1012D000CCF3869577956795B395D9F73EF49095BD
:1012E0008095709561957F4F8F4F9F4F08950F9315
:1012F0001F93CF93DF938230910510F482E090E04A
:10130000E0912002F091210230E020E0B0E0A0E086
:10131000309799F42115310509F44AC0281B390B7F
:1013200024303105D8F58A819B816115710589F1D9
:10133000FB0193838283FE0111C0408151810281B0
:10134000138148175907E0F04817590799F4109787
:1013500061F012960C93129713961C933296CF015C
:10136000DF91CF911F910F91089500932002109368
:101370002102F4CF2115310551F04217530738F0FF
:10138000A901DB019A01BD01DF01F801C1CFEF0125
:10139000F9CF9093210280932002CDCFFE01E20F7E
:1013A000F31F819391932250310939832883D7CF3A
:1013B00020911E0230911F02232B41F42091020143
:1013C0003091030130931F0220931E0220910001EF
:1013D000309101012115310541F42DB73EB74091FF
:1013E000040150910501241B350BE0911E02F09180
:1013F0001F02E217F307A0F42E1B3F0B2817390733
:1014000078F0AC014E5F5F4F2417350748F04E0F60
:101410005F1F50931F0240931E02819391939FCFB1
:10142000F0E0E0E09CCFCF93DF930097E9F0FC0180
:10143000329713821282A0912002B0912102ED0115
:1014400030E020E01097A1F420813181820F931FBA
:1014500020911E0230911F022817390709F061C040
:10146000F0931F02E0931E02DF91CF910895EA01ED
:10147000CE17DF07E8F54A815B819E0141155105D2
:10148000B1F7E901FB83EA8349915991C40FD51F54
:10149000EC17FD0761F4808191810296840F951FFE
:1014A000E90199838883828193819B838A83F0E019
:1014B000E0E012968D919C9113970097B9F52D91CC
:1014C0003C911197CD010296820F931F20911E022D
:1014D00030911F022817390739F6309751F51092CD
:1014E000210210922002B0931F02A0931E02BCCFD3
:1014F000D383C28340815181840F951FC817D907B8
:1015000061F44E5F5F4F88819981480F591F518365
:1015100040838A819B81938382832115310509F061
:10152000B0CFF0932102E09320029ECFFD01DC01B9
:10153000C0CF13821282D7CFB0E0A0E0E2EAFAE097
:101540000C94C9088C01009751F4CB010E947709D3
:101550008C01C801CDB7DEB7E0E10C94E508FC01D1
:10156000E60FF71F9C0122503109E217F30708F438
:101570009DC0D901CD91DC911197C617D70798F07E
:10158000C530D10530F3CE0104978617970708F3CD
:10159000C61BD70B2297C193D1936D937C93CF0138
:1015A0000E94130AD6CF5B01AC1ABD0A4C018C0E07
:1015B0009D1EA0912002B0912102512C412CF12CB2
:1015C000E12C109731F580911E0290911F02881531
:1015D000990509F05CC04616570608F058C080917E
:1015E000000190910101009741F48DB79EB74091A1
:1015F000040150910501841B950BE817F90708F0C9
:1016000055C0F0931F02E0931E02F90171836083BD
:10161000A0CF8D919C91119712966C901297139672
:101620007C901397A815B90559F56C0142E0C40EDA
:10163000D11CCA14DB0420F1AC014A195B09DA01A0
:101640001296159780F06282738251834083D9018C
:101650006D937C93E114F10471F0D7011396FC9320
:10166000EE93129776CF22968C0F9D1FF9019183EE
:101670008083F301EFCFF0932102E093200269CF42
:101680004816590608F42C017D01D3019ACFCB01ED
:101690000E9477097C01009749F0AE01B8010E94D1
:1016A000590BC8010E94130A870153CF10E000E0D4
:1016B00050CFFB01DC0102C001900D92415050401F
:1016C000D8F70895FB01DC0101900D920020E1F7AD
:0616D0000895F894FFCF1D
:1016D60000002202800000000000CE012E015B0106
:1016E6001B028C016A017E010D0A0053746172743B
:1016F600206F66204D696E69426F742064656D6F58
:101706002070726F6772616D210044697374616E37
:0A17160063653A200020636D0000B7
:00000001FF
